:100000000C9434000C9451000C9451000C941B027D
:100010000C94C9000C94E6000C9451000C9451000F
:100020000C9451000C9451000C9451000C947E02DD
:100030000C9451000C9451000C9451000C945100FC
:100040000C9451000C9451000C9451000C945100EC
:100050000C9451000C9451000C9451000C945100DC
:100060000C9451000C94510011241FBECFEFD8E026
:10007000DEBFCDBF11E0A0E0B1E0E6ECF5E002C0EC
:1000800005900D92A030B107D9F721E0A0E0B1E0D2
:1000900001C01D92A530B207E1F70E9453000C94F5
:1000A000E1020C940000CF93DF9300D0CDB7DEB710
:1000B00014B817B81AB815B818B81BB878940E94B5
:1000C000D8010E94AD020E942E010E9405021982F1
:1000D00081E08A830E9412020E9459018FE891E018
:1000E0000197F1F700C000004999FECFBE016E5F95
:1000F0007F4FCE0101960E948D000E943A018981B6
:100100008F5F89838A3091F781E09A81911180E035
:100110008A830E944C011982E9CFEF92FF920F93DC
:100120001F93CF93DF9300D0CDB7DEB77C018B0157
:100130000E9416020E94C402809100018983F80186
:100140008081813019F4F70180818A83F8018081F0
:10015000811105C0F70190818AE0891B8A83CE0155
:1001600001960E94EA01FFEF2DE389E4F15020405F
:100170008040E1F700C00000B801C7010E946F0194
:100180000F900F90DF91CF911F910F91FF90EF9003
:1001900008951F920F920FB60F9211248F93EF9331
:1001A000FF93ECE6F0E080818F7D8083EDE6F0E068
:1001B00080818E7F808381E080930101FF91EF91A8
:1001C0008F910F900FBE0F901F9018951F920F9256
:1001D0000FB60F9211248F93EF93FF93ECE6F0E0AC
:1001E00080818F7D8083EDE6F0E080818E7F80834B
:1001F00081E080930201FF91EF918F910F900FBEEC
:100200000F901F90189587B18F7C87B987B18C604C
:1002100087B988B18B7F88B988B1886388B98AB17A
:100220008C7F8AB98AB184608AB98BB187608BB9B7
:100230000895E1E0F1E0108211820895E8E6F0E02F
:10024000808186608083ECE6F0E08081806280833C
:10025000EDE6F0E080818160808308950E940301D3
:100260000E941E010E941901089582E084BD85E06C
:1002700085BD08950E94350190E00BC088B184606F
:1002800088B916BC86B58E3BE9F788B18B7F88B9F3
:100290009F5F9A3098F30895882319F0813029F0F0
:1002A000089588B1877F88B9089588B1886088B932
:1002B00008950E94350180E00E944C010AC088B177
:1002C000846088B916BC86B58E3BE9F788B18B7F10
:1002D00088B93499F4CF81E00E944C0108950F93BE
:1002E0001F93CF93DF93EC018B0180910101882351
:1002F000C1F10E945901188281E0F80180830E94B7
:1003000012028FE891E00197F1F700C000008BB175
:100310008B7F8BB995E09A95F1F700008BB18460E3
:100320008BB94999FECFEFE3FCE93197F1F700C0B3
:100330000000499BFECF8FE39CE90197F1F700C0D5
:100340000000ECE6F0E0808180628083EDE6F0E082
:1003500080818160808310920101B801CE010E94EA
:100360008D00809102018823F1F0109202010E9419
:1003700012024999FECFEFE3FCE93197F1F700C093
:100380000000499BFECF8FE39CE90197F1F700C085
:100390000000ECE6F0E0808180628083EDE6F0E032
:1003A000808181608083DF91CF911F910F910895AB
:1003B00084B18C6284B984B18F7E84B985B1877C25
:1003C00085B985B1846085B98CB58C658CBD8DB5DA
:1003D0001DBC0895AC0195B19B7F95B990E009C013
:1003E000FA01E90FF11D20812EBD0DB407FEFDCFEE
:1003F0009F5F9230A8F38FEA94E00197F1F700C075
:10040000000085B1846085B9089587B18D7F87B973
:1004100087B1816087B988B18E7F88B988B18260E1
:1004200088B9089588B1816088B9089598B181E04C
:10043000892788B908951F920F920FB60F92112441
:100440002F938F939F93EF93FF93809184008093DA
:100450000001EFE6F0E080818D7F808318992DC048
:10046000E8E6F0E080818E7F8083EBE6F0E080813B
:100470008E7F8083809100012091030190E0821B98
:1004800091094AF48091000190910301891B8150E8
:100490008093000107C08091000190910301891BA6
:1004A00080930001809100018D3518F08FEF8093CB
:1004B000000181E08093040117C0189B15C0809152
:1004C00000018093030180918400909185009395B1
:1004D000909389008093880086B3826086BBEFE6A4
:1004E000F0E0808182608083FF91EF919F918F91F6
:1004F0002F910F900FBE0F901F9018951F920F9283
:100500000FB60F9211248F93EF93FF93E8E6F0E07C
:1005100080818E7F8083EBE6F0E080818E7F808318
:10052000EFE6F0E080818D7F80838FEF8093000184
:1005300081E080930401FF91EF918F910F900FBEA6
:100540000F901F90189584B18E7F84B984B182601A
:1005500084B985B18C7F85B908950E94A302109259
:100560000401109200010895109280008DE08093A4
:10057000810010928200EFE6F0E080818D7F808321
:1005800008950E94B40208950E94C102E8E6F0E0D6
:10059000808181608083EBE6F0E0808181608083F0
:1005A00085B1826085B985E38A95F1F7000085B150
:1005B0008D7F85B9809104018823E1F310920401B5
:0605C0000895F894FFCF3E
:00000001FF
